:100000000C9413020C9400000C9400000C9400005B
:100010000C9400000C9400000C9400000C94000060
:100020000C9400000C9400000C9400000C94000050
:100030000C9400000C9400000C9400000C94000040
:100040000C9400000C9400000C9400000C94000030
:100050000C9400000C9400000C9400000C94000020
:100060000C9400000C9400000C9400000C94000010
:100070000C944B020C9400000C9400001027E80331
:1000800064000A00010000100001100001000702D6
:10009000180229023A024B025C0260026402680202
:1000A0006C02000600000705060F0900080C000698
:1000B00000000705080A090B0602000600000705F4
:1000C00004080605050E00060000070505080002E5
:1000D00002090006000007050A0D03050E0B0000CB
:1000E000000000000000000050494E203A20004A65
:1000F0006F6B6F20536574796177616E20202000EB
:1001000052697A6B792047756D696C616E67202042
:1001100000426F6E204A6F76692020202020202028
:100120002000546F6D204372756973652020202074
:10013000202000537573616E202020202020202075
:10014000202020003032340030333200313233008E
:10015000323334003534310052464944205265610F
:100160006465722020202020004D6173756B6B61E7
:100170006E2050494E20202020004A6F6B6F205384
:100180006574796177616E7C7B307830302C2030FB
:100190007830362C20307830302C20307830302CAD
:1001A00020307830372C20307830352C20307830A3
:1001B000362C20307830462C20307830392C2030C6
:1001C0007830302C20307830382C20307830437D17
:1001D0000D0A0053696C61686B616E204D61737527
:1001E0006B20200050494E2053616C616820202014
:1001F000202020200052697A6B792047756D696C48
:10020000616E677C7B307830302C20307830362C33
:1002100020307830302C20307830302C203078303E
:10022000372C20307830352C20307830382C203066
:100230007830412C20307830392C20307830422CE6
:1002400020307830362C20307830327D0D0A004254
:100250006F6E204A6F76697C7B307830302C20308E
:100260007830362C20307830302C20307830302CDC
:1002700020307830372C20307830352C20307830D2
:10028000342C20307830382C20307830362C203008
:100290007830352C20307830352C20307830457D42
:1002A0000D0A00546F6D204372756973657C7B3055
:1002B0007830302C20307830362C20307830302C8C
:1002C00020307830302C20307830372C2030783087
:1002D000352C20307830352C20307830382C2030B8
:1002E0007830302C20307830322C20307830322C5E
:1002F00020307830397D0D0A00537573616E7C7B38
:10030000307830302C20307830362C203078303037
:100310002C20307830302C20307830372C2030783A
:1003200030352C20307830412C20307830442C204F
:10033000307830332C20307830352C2030783045F0
:100340002C20307830427D0D0A00546964616B20A6
:1003500054657264616674617220000080C0070099
:100360000002E80011000702EF001100180200016E
:1003700011002902110111003A02220111004B0261
:1003800033010A007B038E0004005C024401040078
:1003900060024801040064024C010400680250013C
:1003A00004006C0254010A00850398000C008F03BE
:1003B000A2000C009B03AE000C00A703BA000C00C7
:1003C000B303C6000C00BF03D20011007002580135
:1003D00011008102690111009202D3011100A302F0
:1003E000E4011100B402D3011100C502E4011100BF
:1003F000D602D3011100E702E4011100F802D30193
:1004000011000903E40111001A03D30111002B03A9
:10041000E40111003C034A030A000300DE0002006D
:10042000CB035C030000F894EE27EFBBF1E0F5BFCF
:10043000E5BFF8E1A895A4B7A77FA4BFF09360003B
:10044000E09360008DE0A2E0BB27ED938A95E9F789
:1004500080E094E0A0E0B1E0ED930197E9F7EEE5EC
:10046000F3E085919591009761F0A591B591059084
:100470001590BF01F00105900D920197E1F7FB0186
:10048000F0CFE0E0EEBBEFEFEDBFE4E0EEBFC0E0A9
:10049000D2E00C94A303EA93FA93EFB7EA931A938A
:1004A0000A931091C8000091CE00E12FEC7149F43D
:1004B000E32DF42DE35BFC4F0083E1E0F0E03E0E22
:1004C0004F1EE0E1F0E03E164F0618F0F09A33249C
:1004D000442409911991E991EFBFF991E991189597
:1004E000E0E00E947C07E0E0F2E00E948107EFE795
:1004F0000E948507309907C00E948C07EAE20E949B
:1005000091070E949507319907C00E948C07E7E385
:100510000E9491070E949507329907C00E948C079C
:10052000E4E30E9491070E949507339907C00E9457
:100530008C07E1E30E9491070E949507EFEB0E9470
:100540008507309907C00E948C07E0E30E9491075D
:100550000E949507319907C00E948C07E8E30E942A
:1005600091070E949507329907C00E948C07E5E326
:100570000E9491070E949507339907C00E948C073B
:10058000E2E30E9491070E949507EFED0E94850724
:10059000309907C00E948C07E3E20E9491070E94F5
:1005A0009507319907C00E948C07E9E30E949107E3
:1005B0000E949507329907C00E948C07E6E30E94CB
:1005C00091070E949507339907C00E948C07E3E3C7
:1005D0000E9491070E949507EFEE0E9485073099CF
:1005E00007C00E948C07E4E40E9491070E949507CF
:1005F000319907C00E948C07E3E40E9491070E9492
:100600009507329907C00E948C07E2E40E94910787
:100610000E949507339907C00E948C07E1E40E946D
:1006200091070E9495070895FF921A930A93FF2459
:10063000F1FC18C00E94A6070E94AB076CF40E9450
:10064000B007AFE8B3E00E94B60719F0E894F0F8FD
:1006500003C00E94BB07F0CFF0FE04C06894F1F81D
:1006600001E010E0F1FC18C00E94A6070E94AB0751
:100670006CF40E94B007ABE9B3E00E94B60719F032
:10068000E894F0F803C00E94BB07F0CFF0FE04C06E
:100690006894F1F802E010E0F1FC18C00E94A6078F
:1006A0000E94AB076CF40E94B007A7EAB3E00E9477
:1006B000B60719F0E894F0F803C00E94BB07F0CF2A
:1006C000F0FE04C06894F1F803E010E0F1FC18C0FB
:1006D0000E94A6070E94AB076CF40E94B007A3EB30
:1006E000B3E00E94B60719F0E894F0F803C00E9446
:1006F000BB07F0CFF0FE04C06894F1F804E010E00E
:10070000F1FC18C00E94A6070E94AB076CF40E947F
:10071000B007AFEBB3E00E94B60719F0E894F0F829
:1007200003C00E94BB07F0CFF0FE04C06894F1F84C
:1007300005E010E0F1FC02C000E010E0F8010991D2
:100740001991FF900895E0E8E0936100E0E0E09304
:100750006100E2B9E1B9E5B9E4B9EFEFE8B9E0EF7A
:10076000E7B9E0E0EBB9E0EEEAB9E0E0E4BDE5BD11
:10077000E6BDE7BDE8BDE0938000E0938100E09333
:100780008500E0938400E0938700E0938600E09387
:100790008900E0938800E0938B00E0938A00E09367
:1007A000B600E093B000E093B100E093B200E093B4
:1007B000B300E093B400E0936900EDBBE093680000
:1007C000E0936E00E0936F00E0937000E093C00050
:1007D000E8E9E093C100E6E0E093C200E0E0E093E6
:1007E000C500E7E4E093C400E0E0E093C800E8E976
:1007F000E093C900E6E0E093CA00E0E0E093CD00BA
:10080000E7E4E093CC00E0E8E0BFE0E0E0937B00C9
:10081000E0937F00E0937A00ECBDE093BC00E0E160
:10082000EA930E9448070E9409075D9A7894EF2D89
:10083000EE7FFE2E0E94C007E0E7F2E00E948107F3
:10084000F09BFECFF098E1E0F0E07E2E8F2EECE002
:10085000F0E0E715F80584F0E72DF82D3197E25A1E
:10086000FC4F0F01ADE4B3E0A70DB81DEC91D00132
:10087000EC930E94BB07EBCF772488240E94AB0740
:1008800004F50E94C507A03320F00E94C507AA33D3
:1008900008F004C00E94CB07F0970EC00E94C50765
:1008A000A13420F00E94C507A73408F007C00E94B9
:1008B000CB073A96E154F040D001EC930E94BB077D
:1008C000DDCFB2DEDE2EEF2E0D2C0E2811F40C94AF
:1008D0001C050E94C007ED2DFE2D3197ABE7B3E05C
:1008E000EE0FFF1FAE0FBF1F0E9442080E9481073C
:1008F0000E94D7070E94C007E1E8F2E00E9481074A
:10090000E3E0F0E05E166F0614F4EADDF9CFE0E014
:10091000E0937A030E940907ED2DFE2DE130A0E05F
:10092000FA07C1F4E0918503F09186030E94DD0788
:1009300041F45F9AEAE7F1E00E94E707E2E9F2E0BA
:1009400004C00E94EE07E3EAF2E0FA93EA930E9401
:1009500039076FC0E230A0E0FA07C1F4E0918703E5
:10096000F09188030E94DD0741F45F9AE5EFF1E022
:100970000E94E707E4EBF2E004C00E94EE07E5EC1A
:10098000F2E0FA93EA930E94390753C0E330A0E003
:10099000FA07C1F4E0918903F0918A030E94DD0710
:1009A00041F45F9AEFE4F2E00E94E707E6EDF2E03F
:1009B00004C00E94EE07E7EEF2E0FA93EA930E9489
:1009C000390737C0E430A0E0FA07C1F4E0918B03A7
:1009D000F0918C030E94DD0741F45F9AE3EAF2E0B4
:1009E0000E94E707E8EFF2E004C00E94EE07E9E0AA
:1009F000F3E0FA93EA930E9439071BC0E530A0E0C8
:100A0000FA07B9F4E0918D03F0918E030E94DD079F
:100A100041F45F9AE9EFF2E00E94E707EAE1F3E0D0
:100A200004C00E94EE07EBE2F3E0FA93EA930E941F
:100A300039075524662406C00E94C007ECE3F3E0A2
:100A40000E948107F0FE04C00E94D7075D9A05C08E
:100A5000E0EAFFE00E94F2075F98E9CEFFCFE09165
:100A6000C000E072E1F3E881E093C6000C947A07DD
:100A7000EA81EA93F4DFA881B981ED91FD91319685
:100A8000FE93EE930C94460726970E944A0810E0C6
:100A9000AC85BD85E0E0F0E0ED93FC93EA89FB894D
:100AA0003196EA8BFB8B3197E4912E2FE03011F4D5
:100AB0000C947106E12FE03039F4253211F411E085
:100AC00002C00E94F6070CC1E130A9F4253219F4E6
:100AD0000E94F60704C112E040E000E02D3211F45C
:100AE00001E0FEC02B3211F44BE2FAC0203211F4C7
:100AF00040E2F6C002C0E23039F450E013E02033A7
:100B000011F40068EDC004C0E33011F00C947006DD
:100B1000203310F02A3308F007C0AAE05A9F502D66
:100B2000E22FE0535E0FDCC0E22FE33649F40E946F
:100B3000FF07E889F989A481AA930E940508CFC01C
:100B4000E33741F40E94FF070E940D080E94B2069D
:100B50001E2F0AC0E03761F40E94FF070E940D08B3
:100B60000E94BC061E2F086002600F7730E035C07F
:100B7000E43611F0E93611F4046002C0E53731F4CF
:100B8000ECE7F0E0EE83FF8315E00DC0E83511F4EB
:100B9000086004C0E83711F00C946F06E6E8F0E056
:100BA000EE83FF8314E002FF14C00E94FF070E943F
:100BB0001708AB85AA233AF4EA85FB850E943E0814
:100BC000EA87FB874DE2403011F01F5F01C00B7FC9
:100BD00004C00E94FF070E94170800FD11C01517EE
:100BE00078F407FF08C002FF04C00B7F242F1150C8
:100BF00001C020E301C020E20E94F6075150EFCF70
:100C0000312F01FF17C03030A1F003FF06C0EE8185
:100C1000FF812591EE83FF8305C0AE81BF812D91B9
:100C2000AE83BF830E94F607503009F05150315017
:100C3000EACF4BC020E3EE81FF810E944608E8879F
:100C4000F987EE81FF813296EE83FF83E885F9858F
:100C5000AA85BB85AE17BF0750F02F5FA885B98561
:100C6000EA85FB85EA1BFB0BEA87FB87EFCF2A337C
:100C700028F003FF02C0295F01C0295D04FD1AC0EE
:100C8000213320F4A885B985119709F409C05317B9
:100C900010F000FF01C013C020E207FF0BC020E3EB
:100CA000006102FF07C00B7F4A930E940508503085
:100CB00009F051500E94F607503009F05150315060
:100CC000A885B985129708F0B5CF00FF08C050304D
:100CD00031F05150E0E2EA930E940508F8CF10E0AD
:100CE000DDCEAC85BD850E9442080E945108649605
:100CF0000895FF92F82E26971A930A93DE01149610
:100D00000E943A088D01E0E0EC83ED83EE83EF83EF
:100D1000DE0118960E943A080E944208FA93EA936C
:100D20001A930A93E8E3F5E0FA93EA93FE01389602
:100D3000FA93EA93A9DE198108812896FF90089515
:100D4000E991F991A991B9916D917191671721F488
:100D50006623D1F7EE270895671BE1F3E1E008F47D
:100D6000E2500895A991B991EE27FF276D9166236E
:100D700011F03196FBCF0895AA27BB27E991F9918D
:100D80000590002011F01196FBCFFD010895E88138
:100D9000E07111F0149A01C01498E881E07211F02A
:100DA000159A01C01598E881E07411F0169A01C0F7
:100DB0001698E881E07811F0179A01C0179887E03B
:100DC0008A95F1F7129A82E18A95F1F7129882E1F9
:100DD0008A95F1F78FC0E881EA93D9DFE881E2953F
:100DE000E883E881EA93D3DF88EB8A95F1F782C044
:100DF000E881F0E0E553FC4FE081A981EA0FEA9336
:100E0000EADFE981E093CF03E881E093D003229603
:100E10000895E2E00E941F08ECE0EA93DCDFE1E0E5
:100E20000E941F08E0E0E093D003E093CF03089511
:100E3000A881AA3031F0E091D103A091CF03AE1781
:100E400068F0E0E0EA93E091D003EF5FE093D00335
:100E5000EA93CEDFA881AA3009F44CC0E091CF0319
:100E6000EF5FE093CF03109AE881EA93B4DF109824
:100E700041C01A93A981BA81ED91A983BA831E2F2B
:100E8000E03019F01A93D4DFF5CF18812396089536
:100E90000C9A0D9A0E9A0F9A0A9A089A099A129821
:100EA00010981198E881E093D103E058E093CD03C6
:100EB000E881E054E093CE03E4E1F0E00E94F20721
:100EC0000E9425080E9425080E942508E0E2EA9376
:100ED0005EDF84E191E00197F1F7E8E2EA937BDFDE
:100EE000E4E0EA9378DFE5E8EA9375DFE6E0EA9389
:100EF00072DF8FDF21960895EA93E1E0EA930C9484
:100F0000F806FA93EA930C943907E8B9EEE1F0E0B9
:100F1000FA93EA930C942E08A6E7B3E0A50DB61D4C
:100F20000895EC93E52DEA5FE7CFEAE2EA930E94A9
:100F30001807E1E0F0E05E0E6F1E5E9AE4E6F0E076
:100F4000FA93EA930E942E085E9808956894F0F848
:100F5000772488240895ECE0F0E07E168F0608954B
:100F6000AAE6B3E0A70DB81D0C900895A70DB81D13
:100F7000EC91E0150895E1E0F0E07E0E8F1E0895FB
:100F8000E0E0EA93EA930C94F806AEE5B3E0A70D2F
:100F9000B81DAC910895E72DF82DE659FC4F0F01CF
:100FA000AEE5B3E0A70DB81DEC91F0E00895E0EDDB
:100FB000F7E0FA93EA930C942E08FA93EA93E6E7A3
:100FC000F3E0FA93EA930E94A006E0300895FA93C2
:100FD000EA9380E00E9479062296D2CF6894F0F8D6
:100FE0005D98CECFFA93EA930C942E082A93ED8560
:100FF000FE85FA93EA93E989FA8909950895E889C3
:10100000F9893497E88BF98B0895ED85FE85FA937D
:10101000EA93E989FA8909950895A889B989149606
:101020000E944208EE83FF83FA93EA930895A88909
:10103000B98914960E944208EA87FB870895EA93CB
:101040000E94EB06E3E0F0E0CDCFE0E3EA930E94FC
:10105000C70684E191E00197F1F70895E991F991CC
:10106000309639F08DEC9AE00197F1F7A895319719
:10107000C9F708950024AF0DB01D0895F195E195CD
:10108000F0400895ED91FC91119708950590F49129
:10109000E02D08955A934A933A932A931A930A9308
:1010A00008955D814C813B812A81198108810895D1
:00000001FF
